{"abi":[{"type":"function","name":"verifyProof","inputs":[{"name":"","type":"uint256[2]","internalType":"uint256[2]"},{"name":"","type":"uint256[2][2]","internalType":"uint256[2][2]"},{"name":"","type":"uint256[2]","internalType":"uint256[2]"},{"name":"","type":"uint256[1]","internalType":"uint256[1]"}],"outputs":[{"name":"","type":"bool","internalType":"bool"}],"stateMutability":"pure"}],"bytecode":{"object":"0x6080604052348015600e575f5ffd5b506101a48061001c5f395ff3fe608060405234801561000f575f5ffd5b5060043610610029575f3560e01c806343753b4d1461002d575b5f5ffd5b610047600480360381019061004291906100d5565b61005d565b6040516100549190610155565b60405180910390f35b5f60019050949350505050565b5f5ffd5b5f5ffd5b5f8190508260206002028201111561008d5761008c61006e565b5b92915050565b5f819050826040600202820111156100ae576100ad61006e565b5b92915050565b5f819050826020600102820111156100cf576100ce61006e565b5b92915050565b5f5f5f5f61012085870312156100ee576100ed61006a565b5b5f6100fb87828801610072565b945050604061010c87828801610093565b93505060c061011d87828801610072565b92505061010061012f878288016100b4565b91505092959194509250565b5f8115159050919050565b61014f8161013b565b82525050565b5f6020820190506101685f830184610146565b9291505056fea2646970667358221220ec282be493dcbc77409200f1844f39aed41fa241143ffe522545e7e987bf0cad64736f6c634300081e0033","linkReferences":{}},"methodIdentifiers":{"verifyProof(uint256[2],uint256[2][2],uint256[2],uint256[1])":"43753b4d"},"id":1}