{"abi":[{"type":"constructor","inputs":[{"name":"_verifier","type":"address","internalType":"address"}],"stateMutability":"nonpayable"},{"type":"function","name":"verifier","inputs":[],"outputs":[{"name":"","type":"address","internalType":"contract IVerifier"}],"stateMutability":"view"},{"type":"function","name":"verify","inputs":[{"name":"a","type":"uint256[2]","internalType":"uint256[2]"},{"name":"b","type":"uint256[2][2]","internalType":"uint256[2][2]"},{"name":"c","type":"uint256[2]","internalType":"uint256[2]"},{"name":"input","type":"uint256[1]","internalType":"uint256[1]"}],"outputs":[{"name":"","type":"bool","internalType":"bool"}],"stateMutability":"view"}],"bytecode":{"object":"0x608060405234801561000f575f5ffd5b506040516105a73803806105a7833981810160405281019061003191906100d4565b805f5f6101000a81548173ffffffffffffffffffffffffffffffffffffffff021916908373ffffffffffffffffffffffffffffffffffffffff160217905550506100ff565b5f5ffd5b5f73ffffffffffffffffffffffffffffffffffffffff82169050919050565b5f6100a38261007a565b9050919050565b6100b381610099565b81146100bd575f5ffd5b50565b5f815190506100ce816100aa565b92915050565b5f602082840312156100e9576100e8610076565b5b5f6100f6848285016100c0565b91505092915050565b61049b8061010c5f395ff3fe608060405234801561000f575f5ffd5b5060043610610034575f3560e01c80632b7ac3f3146100385780632fa8ea6d14610056575b5f5ffd5b610040610086565b60405161004d91906101cd565b60405180910390f35b610070600480360381019061006b9190610251565b6100aa565b60405161007d91906102d1565b60405180910390f35b5f5f9054906101000a900473ffffffffffffffffffffffffffffffffffffffff1681565b5f5f5f9054906101000a900473ffffffffffffffffffffffffffffffffffffffff1673ffffffffffffffffffffffffffffffffffffffff166343753b4d868686866040518563ffffffff1660e01b815260040161010a94939291906103cb565b602060405180830381865afa158015610125573d5f5f3e3d5ffd5b505050506040513d601f19601f82011682018060405250810190610149919061043a565b9050949350505050565b5f73ffffffffffffffffffffffffffffffffffffffff82169050919050565b5f819050919050565b5f61019561019061018b84610153565b610172565b610153565b9050919050565b5f6101a68261017b565b9050919050565b5f6101b78261019c565b9050919050565b6101c7816101ad565b82525050565b5f6020820190506101e05f8301846101be565b92915050565b5f5ffd5b5f5ffd5b5f81905082602060020282011115610209576102086101ea565b5b92915050565b5f8190508260406002028201111561022a576102296101ea565b5b92915050565b5f8190508260206001028201111561024b5761024a6101ea565b5b92915050565b5f5f5f5f610120858703121561026a576102696101e6565b5b5f610277878288016101ee565b94505060406102888782880161020f565b93505060c0610299878288016101ee565b9250506101006102ab87828801610230565b91505092959194509250565b5f8115159050919050565b6102cb816102b7565b82525050565b5f6020820190506102e45f8301846102c2565b92915050565b82818337505050565b6102ff604083836102ea565b5050565b5f60029050919050565b5f81905092915050565b5f819050919050565b61032c604083836102ea565b5050565b5f61033b8383610320565b60408301905092915050565b5f82905092915050565b5f604082019050919050565b61036681610303565b610370818461030d565b925061037b82610317565b805f5b838110156103b3576103908284610347565b61039a8782610330565b96506103a583610351565b92505060018101905061037e565b505050505050565b6103c7602083836102ea565b5050565b5f610120820190506103df5f8301876102f3565b6103ec604083018661035d565b6103f960c08301856102f3565b6104076101008301846103bb565b95945050505050565b610419816102b7565b8114610423575f5ffd5b50565b5f8151905061043481610410565b92915050565b5f6020828403121561044f5761044e6101e6565b5b5f61045c84828501610426565b9150509291505056fea264697066735822122000bbcaf14299dc7c1d29d2409b1a57da88b0af567ad8e62de769b4256ff0c76f64736f6c634300081e0033","linkReferences":{}},"methodIdentifiers":{"verifier()":"2b7ac3f3","verify(uint256[2],uint256[2][2],uint256[2],uint256[1])":"2fa8ea6d"},"id":0}